:102000000080002059B80000B1B2000041B80000C3
:1020100000000000000000000000000000000000C0
:1020200000000000000000000000000041B80000B7
:10203000000000000000000041B80000ADB8000042
:1020400041B8000041B800008D8E000041B800008A
:1020500075B2000041B80000B97D000045B800002D
:1020600041B80000659000007921000041B80000EF
:102070004976000041B800007590000041B80000AA
:1020800041B8000041B80000CD87000041B8000011
:102090000000000041B8000041B8000041B8000055
:1020A00041B8000041B8000041B8000041B800004C
:1020B0000000000010B5064C2378002B07D1054B1B
:1020C000002B02D0044800E000BF0123237010BDA4
:1020D000000400200000000014590100044B10B55A
:1020E000002B03D00349044800E000BF10BDC046E8
:1020F000000000000404002014590100012210B562
:10210000044B06201A7009F075F80349034807F0DC
:1021100045F810BD29040020141D0100B84100201D
:10212000012210B5024B0E201A7009F063F810BDA1
:10213000300C002070B505000C00081E07D00DF013
:1021400072FC2B680200210028005B68984770BD74
:1021500010B50A004369016906F018FE10BD10B5FC
:102160004269016906F05EFE10BD10B50A004369C0
:10217000016906F069FE10BD10B5024808F07EFE48
:1021800010BDC0462C04002010B50549054807F0D5
:1021900005F8FA2100220448890106F0B5FE10BDB9
:1021A000211D0100B8410020A43B002010B50449C6
:1021B000044806F0F3FF044806F05CFE10BDC0467C
:1021C000331D0100B8410020A43B002010B58AB0A7
:1021D00069460848FFF7C9FF074C252269462000D9
:1021E0000CF064FC63780548002B00D0601C0AB03A
:1021F00010BDC046800B0020640C0020150000209C
:1022000010B58AB069460848FFF7AFFF074C252292
:10221000694620000CF04AFCE3790548002B00D009
:10222000E01D0AB010BDC046800B0020640C0020E9
:102230001B00002010B58AB069460848FFF795FFDB
:10224000074C2522694620000CF030FC637B0548D2
:10225000002B01D020000D300AB010BD800B0020F3
:10226000640C00202100002010B58AB0694608489F
:10227000FFF77BFF074C2522694620000CF016FC77
:10228000E37C0548002B01D0200013300AB010BDBC
:10229000800B0020640C00202700002010B58AB0BD
:1022A00069460648FFF761FF054C25226946200074
:1022B0000CF0FCFB200019300AB010BD800B002090
:1022C000640C002010B58AB069460648FFF74DFF40
:1022D000054C2522694620000CF0E8FB20001F3049
:1022E0000AB010BD800B0020640C002070B5040003
:1022F000224D88B0290009F048F8214804A9FFF7C9
:1023000034FF204E0E2204A930000CF0CFFB711CCC
:10231000200009F08FF81C4901A809F036F82900BF
:1023200004A809F032F804AA01A9200009F07EF9F6
:1023300004A808F0E2FF01A808F0DFFF134901A894
:1023400009F023F8290004A809F01FF801A904AA3C
:10235000200009F06BF904A808F0CFFF01A808F0ED
:10236000CCFF2900200009F0D0F8002803D020007D
:10237000074909F03DF8200008B070BD7254010013
:10238000900C0020E40B0020582C0100D4370100F1
:10239000740B002070B5002686B0144C144801A9B7
:1023A0002670FFF7E2FE134D142201A928000CF05D
:1023B0007DFB0822691C20000DF063FB20000DF05E
:1023C00032FB2018467020000DF02DFB082809D0A4
:1023D0000822094920000DF054FB20000DF023FBDA
:1023E00020184670200006B070BDC0460D0C0020BD
:1023F000A80C0020422100202D00002010B58EB036
:10240000084801A9FFF7B1FE074C3322200001A9BB
:102410000CF04CFB63780548002B00D0601C0EB01C
:1024200010BDC046CC0B0020980B00200C000020F3
:1024300010B501281CD12C3009F0AAFC0AF062FB6F
:10244000011C0AF0A9F80CF0B1F9144A144B0BF076
:1024500005FB0CF0F3F9EA2189050AF039FA0CF0D2
:10246000A5F9104A104B0AF089FB0CF0E7F910BDF2
:10247000132009F08DFC0AF045FB0CF097F9074A90
:10248000074B0BF0EBFA0CF0D9F9EA2189050AF0B9
:102490001FFA06490AF01CFAE9E7C0466666666656
:1024A00066660A40333333333333C33F0000304171
:1024B000C023114A918A0B439382104A104B118812
:1024C0000B4313800F4A5378DB09FCD110220E4BCB
:1024D00059690A435A61202259690A435A610B4AD1
:1024E0005378DBB253700423094A11690B4313611B
:1024F000BFF34F8F7047C04600080040020C0040F9
:1025000005410000000C004000180040000400409D
:1025100000ED00E0F8B50C001149050008F035FFAA
:10252000104F200039000DF0D7FA00260400002CCF
:1025300014D02A2120000DF056FA002808D00023DC
:102540000370012E03D12100280008F073FF01362B
:10255000390000200DF0C0FA0400E8E72800F8BDBB
:10256000725401004F31010070B505000DF05BFAA7
:102570000C4C0200290020000DF05CFA0A492000F2
:102580000DF024FA20000DF04EFA00232418637099
:10259000064C0749200006F0DCFD2900200006F06B
:1025A000FDFD70BDA2110020461D0100B8410020B4
:1025B000481D010007B500200DF074FB6B46073382
:1025C000181A0EBD70B5040009F07EF9050009F077
:1025D0007BF9401BA042FAD909F076F970BD0000E2
:1025E00010B5FFF7E3FD074C0749200006F0D6FDC4
:1025F0002000064906F0D2FD30BFFA208000FFF728
:10260000E1FF10BDB8410020611D010072540100BE
:10261000F8B505000E0014000027B74211DA0121B9
:10262000280009F05DFC2000FFF7CCFF01370021F6
:10263000280009F055FCB74203DA2000FFF7C2FF7B
:10264000EBE7F8BD10B50649064806F0A7FD0121E5
:10265000052009F045FC6420FFF7B4FF10BDC0461B
:102660007D1D0100B841002010B50649064806F05E
:1026700095FD0021052009F033FC6420FFF7A2FF3F
:1026800010BDC046981D0100B8410020002313B5BD
:10269000074C4B202360FFF795FF20680CF086F86D
:1026A000044B03220093022309F0B6F813BDC04681
:1026B000D40D00204100002010B506490DF0F5F9B9
:1026C0000023984204D00449044806F042FD012347
:1026D000180010BD54080020B41D0100B8410020AE
:1026E000F8B500250F4E104F04003900300035704A
:1026F0000DF091F938000DF096F9301845700B4D3A
:10270000300029000DF0E8F9002806D021000DF076
:10271000CCF9002803D12900F4E70120F8BD0020FE
:10272000FCE7C04657210020A2110020461D0100F1
:1027300010B50400FFF762FE21000DF0B6F9041E8B
:10274000054804D0054906F029FD012010BD0449C3
:1027500006F024FD2000F9E7B8410020BE1D01006D
:10276000D71D010010B505490DF0B6F90449002048
:102770000DF0B2F90CF026F910BDC0469F2E0100F5
:102780001625010070B5324C324E2000310006F0A3
:10279000F1FC2000304906F0D1FC20002F4906F062
:1027A000E9FC2F4D2000290006F0E4FC20002D4913
:1027B00006F0E0FC20002C4906F0DCFC20002B4950
:1027C00006F0D8FC20002A4906F0D4FC2000294954
:1027D00006F0D0FC2000284906F0CCFC2000274958
:1027E00006F0C8FC2000264906F0C4FC200025495C
:1027F00006F0C0FC2000244906F0BCFC2000234960
:1028000006F0B8FC2000224906F0B4FC2000214963
:1028100006F0B0FC2000204906F0ACFC20001F4967
:1028200006F0A8FC20001E4906F0A4FC20001D496B
:1028300006F0A0FC20001C4906F09CFC31002000A2
:1028400006F098FC2900200006F094FC70BDC046FC
:10285000B8410020D4370100E91D010036000020F6
:10286000FC1D0100251E0100491E0100651E01001E
:102870007E1E0100921E0100A91E0100C81E01005B
:10288000E91E0100051F01001E1F01002C1F010091
:10289000491F0100661F0100991F0100B71F0100B9
:1028A000CE1F0100E61F01000320010070B5244C7B
:1028B000244E2000310006F05DFC2000224906F085
:1028C0003DFC224D2000290006F054FC2000204948
:1028D00006F050FC20001F4906F04CFC20001E4969
:1028E00006F048FC20001D4906F044FC20001C496D
:1028F00006F040FC20001B4906F03CFC20001A4971
:1029000006F038FC2000194906F034FC2000184974
:1029100006F030FC2000174906F02CFC2000164978
:1029200006F028FC2000154906F024FC31002000A8
:1029300006F020FC2900200006F01CFC70BDC046FB
:10294000B8410020D437010018200100FC1D01000F
:10295000282001008C200100EE200100122101003E
:10296000232101005121010066210100A221010063
:10297000E3210100172201003C2201008A2201000C
:1029800010B50B4C0B49200006F008FC20000A494A
:1029900006F004FC2000094906F000FC200008496C
:1029A00006F0FCFB2000074906F0F8FB10BDC0460E
:1029B000B8410020B4220100E222010016230100E8
:1029C0004D2301008223010010B50F4C0F49200058
:1029D00006F0E4FB20000E4906F0E0FB20000D4964
:1029E00006F0DCFB20000C4906F0D8FB20000B4968
:1029F00006F0D4FB20000A4906F0D0FB200009496C
:102A000006F0CCFB10BDC046B8410020B823010041
:102A1000E4230100192401002924010048240100B5
:102A20006824010088240100F8B504000D0008F0B6
:102A30004BFF041B0020AC4227D908F045FF134C84
:102A4000134E2000310006F0A9FB124F2000390080
:102A500006F0A4FB1049200006F07BFBFA212800B9
:102A6000890009F051FC0A220100200006F0E7FB72
:102A70000A49200006F092FB3900200006F08EFB88
:102A80003100200006F08AFB0120F8BDB84100208B
:102A9000D4370100071E0100A9240100C53201003E
:102AA000F0B5344E8BB0310001A808F06EFC08F090
:102AB0000BFF08F009FF304C304D070029002000C3
:102AC00006F06CFB20002E4906F068FB2D4938000B
:102AD000FFF7AAFF0A222849040007A807F034F8E4
:102AE00007A901A808F09EFC07A808F006FC310021
:102AF00001A808F00AFD002801D0002CE6D001A8AA
:102B000008F04AFE204904A808F03FFC310007A85D
:102B100008F03BFC07AA04A901A808F087FD07A854
:102B200008F0EBFB04A808F0E8FB002C06D01749DE
:102B3000114806F033FB0122154B1A70154901A804
:102B400008F0E3FC0126041E0DD10B4E29003000D5
:102B500006F024FB3000104906F020FB300029006D
:102B600006F01CFB260001A808F0C7FB30000BB0E4
:102B7000F0BDC04672540100B8410020D4370100B6
:102B8000BB240100E0930400582C0100CE24010076
:102B9000710B0020CA390100DC24010010B586B099
:102BA000D4B2CAB281B20A98DBB2C0B2039009981B
:102BB0000093C0B2029008982300C0B2019004A80C
:102BC00004F056FD024804A904F06EFD06B010BDE5
:102BD0002035002010B5044C200004F043FE2000F6
:102BE00004F052FE10BDC04620350020F0B58FB075
:102BF00003AC2000724904F083FE2379217801930D
:102C0000637967780093FA23DB000A22C91805A8C4
:102C1000A678E57808F030FC092F00D98EE06949E4
:102C20000BA808F0B2FB0A22390008A808F013FC30
:102C300008A90BA808F05CFC010005A808F047FCF7
:102C400008A808F05AFB0BA808F057FB092E00D97A
:102C500081E05C490BA808F098FB0A22310008A823
:102C600008F0F9FB08A90BA808F042FC010005A830
:102C700008F02DFC08A808F040FB0BA808F03DFB6D
:102C8000092D00D974E04F490BA808F07EFB0A22F9
:102C9000290008A808F0DFFB08A90BA808F028FC09
:102CA000010005A808F013FC08A808F026FB0BA8F3
:102CB00008F023FB019B092B67D842490BA808F0B9
:102CC00064FB0A22019908A808F0C5FB08A90BA813
:102CD00008F00EFC010005A808F0F9FB08A808F0B0
:102CE0000CFB0BA808F009FB009B092B5AD83549AF
:102CF0000BA808F04AFB0A22009908A808F0ABFBD1
:102D000008A90BA808F0F4FB010005A808F0DFFBF8
:102D100008A808F0F2FA0BA808F0EFFA05A80222BA
:102D2000002108F016FD00230D22274905A808F010
:102D300000FC05A808F0E1FA0FB0F0BD0A22390046
:102D40000BA808F088FB0BA905A808F0C0FB0BA88E
:102D500008F0D3FA7AE70A2231000BA808F07BFBCF
:102D60000BA905A808F0B3FB0BA808F0C6FA87E783
:102D70000A2229000BA808F06EFB0BA905A808F091
:102D8000A6FB0BA808F0B9FA94E70A2201990BA850
:102D900008F061FB0BA905A808F099FB0BA808F047
:102DA000ACFAA1E70A2200990BA808F054FB0BA982
:102DB00005A808F08CFB0BA808F09FFAAEE7C04608
:102DC00020350020BA3301001C040020002330B558
:102DD00019000500204C87B01A1901331170C82B57
:102DE000FAD12800FFF724FB0BF0E0FC1B4A00900F
:102DF00001910A2103A80CF095FDFFF7F7FE062DBF
:102E00001FD10222200016490BF050FE1549200068
:102E10000CF0DCFD0A2203A920000CF00BFE124985
:102E200020000CF0D3FD0C2220001049062D10D1FB
:102E30000CF000FE20000E490CF0C8FD200007B089
:102E400030BDFFF7C3F91422010020000CF019FE79
:102E5000DCE70CF0EFFDF1E724320020F82401005C
:102E6000FD24010000250100F43301001C040020B2
:102E700007250100F0B5744FC9B00023142207A93B
:102E80000600380008F055FB002314226F480CA9F7
:102E900008F04FFB0023142211A96D4808F049FBEC
:102EA000FFF7A4FEFFF792F9010001A808F06DFA00
:102EB000684904A808F069FA674916A808F065FA95
:102EC00016AA04A901A808F0B1FB16A808F015FA83
:102ED00004A808F012FA032101A808F057FC002307
:102EE00016A9C82201A808F024FB002319005B4C96
:102EF0001A1901331170FA2BFAD10D22584920000A
:102F00000BF0D4FDC82216A920000CF093FD554DFE
:102F1000200029000CF05AFDFFF772F9142201007D
:102F200020000CF087FD290020000CF04FFD6422EA
:102F300007A920000CF07EFD290020000CF046FDC2
:102F40006422200048490CF075FD042E3FD1290071
:102F500020000CF03BFDFFF76DF91422010020006A
:102F60000CF068FD290020000CF030FD64220CA953
:102F700020000CF05FFD290020000CF027FD6422EA
:102F80003A4920000CF056FD344C394920000CF031
:102F90001DFD0C22374920000CF04CFDFA204000AA
:102FA000FFF710FB2000FFF7DFFA2B4C3800210061
:102FB00008F040FA2100254808F03CFA2100244896
:102FC00008F038FA01A808F098F949B0F0BD052ECC
:102FD00037D1290020000CF0F9FCFFF72BF914225F
:102FE000010020000CF026FD290020000CF0EEFC72
:102FF00064220CA920000CF01DFD290020000CF01B
:10300000E5FC6422194920000CF014FD2900200081
:103010000CF0DCFCFFF728F91422010020000CF072
:1030200009FD290020000CF0D1FC642211A9200028
:103030000CF000FD290020000CF0C8FC64220E49B1
:103040009FE70C2EA0D1C4E7003200200C320020F4
:1030500018320020582C010072540100A8100020E2
:103060000A2501001625010048000020AC000020C0
:10307000182501001C0400201001002010B50F24A9
:10308000012909D0053C022906D0053C032903D0BB
:10309000023C042900D01B34210009F035F901302D
:1030A00060433B2800DD002080B210BD37B50F4CD7
:1030B00005002100684604F023FC6B4629001879BE
:1030C000FFF7DCFF0A4D00222880C1B2200004F087
:1030D00061FB084C0849200006F03BF829880A22C9
:1030E000200006F0B0F8FFF781FD37BD2035002045
:1030F000F8300020B84100201B25010010B5040065
:10310000042205F02BFE200010BD13B50400019130
:10311000FFF725F8200001A9FFF71AF813BD07B53E
:1031200001A9FFF722F801980EBD000010B5024872
:10313000FFF7F5FFC0B210BDBC0D002010B502486E
:10314000FFF7EDFFC0B210BD340C002010B50248EF
:10315000FFF7E5FFC0B210BD4C0C0020002370B596
:103160000C4C05002370FFF7F1FF0B4E02280ED127
:10317000FFF72CF80522010020000CF05BFC310069
:10318000072220000CF056FC0023637370BD05225B
:103190002900F1E7540800200400002070B5FFF773
:1031A000D5FF4D4C00280AD14C49200005F0F6FF10
:1031B0004B49200005F0CDFFFFF708F817E0FFF7B7
:1031C000C5FF012818D14749200005F0E7FF46490F
:1031D000200005F0BEFFFEF7F9FF0100200005F01A
:1031E000DDFF4249200005F0B4FFFFF709F80100B8
:1031F000200005F0D3FF70BDFFF7A8FF03280FD113
:103200003B49200005F0CAFF3A49200005F0A1FF24
:10321000FEF7DCFF0100200005F0C0FF3649E1E7C2
:10322000FFF794FF04281ED12000344905F0B6FFB3
:103230003049200005F08DFFFEF7C8FF0100200097
:1032400005F0ACFF2C49200005F083FFFEF7D8FF06
:103250000100200005F0A2FF2949200005F079FFB8
:10326000FEF7E8FFC3E7FFF771FF052828D120002C
:10327000244905F093FF1F49200005F06AFFFEF77F
:10328000A5FF0100200005F089FF1B49200005F083
:1032900060FFFEF7B5FF0100200005F07FFF184931
:1032A000200005F056FFFEF7C5FF0100200005F0E5
:1032B00075FF1549200005F04CFFFEF7D5FF96E796
:1032C000FFF744FF064D1149062800D010492000A1
:1032D00005F064FF29006CE7B84100202C250100AF
:1032E00035250100472501007325010089250100CE
:1032F0002D2401009E250100B02501004C24010071
:10330000C72501006C240100DE250100F525010020
:103310001D24010010B50248FFF701FFC0B210BD27
:10332000180C002010B50448FFF7F9FE013843429D
:103330005841C0B210BDC0467409002010B5034802
:10334000FFF7EDFE43425841C0B210BD3C080020DB
:1033500010B50248FFF7E3FEC0B210BD5C090020C3
:10336000F7B5424B03220821414805F077FA414E58
:10337000414F3100380008F008F8404D404C2A0019
:103380002100380008F024FF3E4F3100380007F0DC
:10339000FCFF2A002100380008F01AFF3A4F3100E4
:1033A000380007F0F2FF2A002100380008F010FF73
:1033B000364F3749380007F0E8FF2A00210038006F
:1033C00008F006FF334F3100380007F0DEFF2A0017
:1033D0002100380008F0FCFE2F4F3100380007F0C4
:1033E000D4FF2A002100380008F0F2FE01230193E7
:1033F00000230B22009329490A33294807F0D4FC03
:1034000028492948FFF77AFE28492948FFF776FE20
:1034100028492948FFF772FE28492948FFF76EFE20
:1034200028492948FFF76AFE14222849284805F050
:1034300095FC0E222749284805F090FC25222749B3
:10344000274805F08BFC33222649274805F086FCE7
:10345000D8222649264805F081FC26492648FFF750
:103460004DFE26492648FFF749FEF7BD6C37002080
:10347000840F002072540100003200200000002060
:10348000FBB200000C32002018320020740B002028
:1034900050260100F4310020E00E0020A44100205D
:1034A0002C040020004101005C090020003E0100C6
:1034B0004C0C0020003F0100340C0020003C0100B7
:1034C000180C002000460100BC0D00200040010047
:1034D000A80C002000420100900C002000430100D5
:1034E000800B002000440100CC0B002000450100AF
:1034F000F40B00200047010074090020003D01008A
:103500003C080020F0B585B008F0DEF92B4F0390A1
:103510003A68831A4B2B39D9FFF708FE284C00284C
:1035200005D1FC212068890509F036F80CE0FFF789
:10353000FDFD01282ED120680BF038F9214A224BDD
:1035400009F01CFB0BF07AF9204D2060280006F0F2
:103550001FFB00281AD01E49280005F0FAFDFFF7CE
:10356000E5FD002819D120680BF020F902000B00BE
:1035700009F004FB0B00022102000091280005F075
:103580003EFF322201210D20FFF742F8039B3B60F2
:1035900005B0F0BDFE212068C5E7FFF7C7FD0600B6
:1035A0002068012E06D10BF001F90022094B0AF028
:1035B00055FADFE70BF0FAF8DCE7C04628070020F1
:1035C000D40D00209A9999999999C93FB841002042
:1035D0000B2601000000144030B589B008F074F9E2
:1035E000794C05007949200005F0B3FD200006F074
:1035F000CFFA002808D128007549FFF715FA0028EE
:10360000F4D00122734B1A70200006F0C1FA002892
:103610002AD00A22210001A806F096FA01A808F093
:10362000BBF801A808F0C5F801A9200005F0ACFD21
:1036300001A808F0E7F8684D002817DD00230D22E7
:10364000691C01A807F075FF0E22290004A80BF0E1
:103650002DFA624C2000FEF782FD200004A9FEF73F
:1036600077FD01A807F049FE09B030BD5C4901A80B
:1036700007F04BFF5B49002800D09EE05A4901A8A3
:1036800007F043FF002808D05849200005F086FDC8
:103690005749681C0CF0BFF9D6E7564901A807F056
:1036A00034FF002806D05449200005F077FD534927
:1036B000681CEFE7524901A807F027FF002806D051
:1036C0005049200005F06AFD4F49681CE2E74F4968
:1036D00001A807F01AFF002806D04D49200005F088
:1036E0005DFD4C49681CD5E74B4901A807F00DFF6B
:1036F000002806D04949200005F050FD4849681CC3
:10370000C8E7484901A807F000FF002806D046494D
:10371000200005F043FD4549681CBBE7444901A86A
:1037200007F0F3FE002806D04249200005F036FDE0
:103730004149681CAEE7414901A807F0E6FE0028B0
:1037400006D03F49200005F029FD3E49681CA1E74D
:103750003D4901A807F0D9FE002806D03B492000CA
:1037600005F01CFD3A49681C94E73A4901A807F0A6
:10377000CCFE002806D03849200005F00FFD37495F
:10378000681C87E7364901A807F0BFFE002806D06D
:103790003449200005F002FD3349681C7AE73349BB
:1037A00001A807F0B2FE002806D03149200005F03C
:1037B000F5FC3049681C6DE72F49200005F0EEFC50
:1037C0002E49681C66E7C046B84100201726010054
:1037D000E0930400710B0020E40B0020900C00200B
:1037E0007A280100312601005D26010064260100CF
:1037F000832601009026010097260100B6260100CD
:10380000C3260100CA260100E9260100F6260100B0
:10381000FA260100102701001D27010021270100C1
:103820003727010044270100492701005F270100D5
:103830006C270100722701008827010095270100ED
:103840009B270100B1270100BE270100C32701000B
:10385000D9270100E6270100ED2701000328010018
:1038600010280100142801002A280100372801002F
:103870003C280100522801005F2801005026010069
:1038800070B508F021F8184C05001849200005F023
:1038900060FC200006F07CF9002808D128001449BB
:1038A000FFF7C2F80028F4D00122124B1A70200052
:1038B00006F06EF9002815D001220021200006F044
:1038C00003F905000C49200005F043FC29000A22F9
:1038D000200005F0B8FC3220FEF774FE29000748EE
:1038E000FFF713FC70BDC046B841002081280100DD
:1038F000E0930400710B00209D280100BC0D002006
:1039000070B507F0E1FF184C05001849200005F0DC
:1039100020FC200006F03CF9002808D128001449BA
:10392000FFF782F80028F4D00122124B1A70200011
:1039300006F02EF9002815D001220021200006F003
:10394000C3F805000C49200005F003FC29000A22F9
:10395000200005F078FC3220FEF734FE29000748ED
:10396000FFF7D3FB70BDC046B8410020B42801006A
:10397000E0930400710B0020C9280100340C0020E2
:1039800070B507F0A1FF164C05001649200005F0A0
:10399000E0FB200006F0FCF8002808D128001249BE
:1039A000FFF742F80028F4D00122104B1A702000D3
:1039B00006F0EEF8002811D001220021200006F0C8
:1039C00083F8050001000A22200005F03CFC3220AB
:1039D000FEF7F8FD29000648FFF797FB70BDC046CB
:1039E000B8410020D9280100E0930400710B0020A9
:1039F0004C0C002070B507F067FF184C0500184903
:103A0000200005F0A6FB200006F0C2F8002808D12F
:103A100028001449FFF708F80028F4D00122124BBF
:103A20001A70200006F0B4F8002816D0FA21200001
:103A3000490106F047F801220021200006F044F871
:103A4000050001000A22200005F0FDFB3220FEF7F0
:103A5000B9FD29000548FFF758FB70BDB8410020AB
:103A6000F1280100E0930400710B0020180C0020E5
:103A700070B507F029FF164C05001649200005F027
:103A800068FB200006F084F8002808D128001249BD
:103A9000FEF7CAFF0028F4D00122104B1A70200054
:103AA00006F076F8002811D001220021200006F04F
:103AB0000BF8050001000A22200005F0C4FB3220AB
:103AC000FEF780FD29000648FFF71FFB70BDC046CA
:103AD000B84100200A290100E0930400710B002086
:103AE0005C09002030B589B007F0EEFE1D4C0500E2
:103AF0001D49200005F02DFB200006F049F80028A4
:103B000008D128001949FEF78FFF0028F4D00122C0
:103B1000174B1A70200006F03BF800281FD00A222D
:103B20002100684606F010F86946200005F02CFBDD
:103B3000104C0023611C0922684607F0FAFC2100A2
:103B4000142203A80AF0B2FF0B4C2000FEF707FB7B
:103B5000200003A9FEF7FCFA684607F0CEFB09B087
:103B600030BDC046B841002021290100E093040087
:103B7000710B002042210020A80C002030B59DB020
:103B800007F0A2FEA94C0500A949200005F09AFF04
:103B9000FFF7DCFA01284ED12000A64905F0D9FA3A
:103BA000200005F0F5FF002808D12800A249FEF703
:103BB0003BFF0028F4D00122A04B1A70200005F032
:103BC000E7FF002835D00A2221000CA805F0BCFF31
:103BD00020000CA905F0D8FA2000994905F0B9FA9F
:103BE0000A2221000FA805F0AFFF20000FA905F061
:103BF000CBFA944C0023611C06220CA807F099FC18
:103C00000023E11D06220FA807F093FC25222100C6
:103C100012A80AF04BFF8C4C2000FEF7A0FA2000FF
:103C200012A9FEF795FA0FA807F067FB0CA807F09A
:103C300064FB1DB030BDFFF789FA03280FD12000C7
:103C4000824905F086FA200005F0A2FF0028B5D1D0
:103C500028007949FEF7E8FE0028F4D0ABE7FFF72B
:103C600075FA042862D12000784905F072FA200024
:103C700005F08EFF002808D128006F49FEF7D4FE1A
:103C80000028F4D001226D4B1A70200005F080FF4F
:103C90000028CED00A22210009A805F055FF2000F7
:103CA00009A905F071FA2000694905F052FA0A22C3
:103CB00021000CA805F048FF20000CA905F064FACB
:103CC0002000644905F045FA0A2221000FA805F0FA
:103CD0003BFF20000FA905F057FA5A4C0023611C46
:103CE000062209A807F025FCE11D002306220CA8E6
:103CF00007F01FFC2100002306220D310FA807F05A
:103D000018FC2522210012A80AF0D0FE4E4C2000FB
:103D1000FEF725FA12A92000FEF71AFA0FA807F0FD
:103D2000ECFA0CA807F0E9FA09A880E7FFF70EFA09
:103D3000052800D092E02000444905F00AFA20004E
:103D400005F026FF002808D128003B49FEF76CFE4D
:103D50000028F4D00122394B1A70200005F018FF1A
:103D6000002800D165E70A22210006A805F0ECFE34
:103D7000200006A905F008FA2000354905F0E9F908
:103D80000A22210009A805F0DFFE200009A905F09C
:103D9000FBF920002F4905F0DCF90A2221000CA8CC
:103DA00005F0D2FE20000CA905F0EEF920002A490A
:103DB00005F0CFF90A2221000FA805F0C5FE20006A
:103DC0000FA905F0E1F91F4C0023611C062206A88B
:103DD00007F0AFFBE11D0023062209A807F0A9FBAD
:103DE0002100002306220D310CA807F0A2FB2100C0
:103DF0000023062213310FA807F09BFB2522210088
:103E000012A80AF053FE104C2000FEF7A8F912A9E0
:103E10002000FEF79DF90FA807F06FFA0CA807F035
:103E20006CFA09A807F069FA06A800E7B841002073
:103E3000204E000036290100E0930400710B0020A1
:103E400055290100640C0020800B0020732901001B
:103E50008B290100AB290100CB290100FFF776F97E
:103E60000D2800D0A8E020006F4905F072F920006D
:103E700005F08EFE002808D128006C49FEF7D4FD1D
:103E80000028F4D001226A4B1A70200005F080FE51
:103E9000002800D1CDE60A222100684605F054FE34
:103EA0006946200005F070F92000624905F051F9DB
:103EB0000A22210003A805F047FE200003A905F00F
:103EC00063F920005C4905F044F90A22210006A8A4
:103ED00005F03AFE200006A905F056F920005749E2
:103EE00005F037F90A22210009A805F02DFE20006F
:103EF00009A905F049F92000514905F02AF90A22DB
:103F000021000CA805F020FE20000CA905F03CF9CA
:103F100020004C4905F01DF90A2221000FA805F0E8
:103F200013FE20000FA905F02FF9474C0023611C58
:103F30000622684607F0FDFAE11D0023062203A8C9
:103F400007F0F7FA2100002306220D3106A807F03A
:103F5000F0FA210000230622133109A807F0E9FA3C
:103F600021000023062219310CA807F0E2FA2100F3
:103F7000002306221F310FA807F0DBFA25222100BB
:103F800012A80AF093FD314C2000FEF7E8F812A9C0
:103F90002000FEF7DDF80FA807F0AFF90CA807F036
:103FA000ACF909A807F0A9F906A807F0A6F903A833
:103FB00007F0A3F968463AE62000254905F0C9F85C
:103FC000200005F0E5FD002808D128001749FEF77C
:103FD0002BFD0028F4D00122154B1A70200005F0AB
:103FE000D7FD002800D124E60A2221000FA805F001
:103FF000ABFD20000FA905F0C7F8134C0023611C8E
:1040000006220FA807F095FA2100252212A80AF02F
:104010004DFD0E4C2000FEF7A2F8200012A9FEF77D
:1040200097F80FA803E6C04673290100E093040047
:10403000710B00208B290100AB290100CB29010065
:10404000EB2901000B2A0100640C0020800B0020EA
:104050002B2A010030B591B007F036FC1D4C05004D
:104060001D49200005F075F8200005F091FD00289D
:1040700008D128001949FEF7D7FC0028F4D0012206
:10408000174B1A70200005F083FD00281FD00A226C
:104090002100684605F058FD6946200005F074F8D7
:1040A000104C0023611C3222684607F042FA2100BE
:1040B000332203A80AF0FAFC0B4C2000FEF74FF85D
:1040C000200003A9FEF744F8684607F016F911B07E
:1040D00030BDC046B8410020422A0100E0930400F0
:1040E000710B0020980B0020CC0B002070B5064D02
:1040F0000400280005F04CFD002803D02100280012
:1041000005F04CF870BDC046B8410020F0B589B04C
:1041100007F0DAFB2E4C05002E49200005F02AF8A6
:10412000200005F035FD002808D128002A49FEF7B7
:104130007BFC0028F4D00122284B1A70200005F0E7
:1041400027FD002842D001220021200005F0BCFC00
:10415000012207000021200005F0B6FC0122050025
:104160000021200005F0B0FC012206000021200003
:1041700005F0AAFC012200210490200005F0A4FC17
:10418000012200210590200005F09EFC0122002163
:104190000690200005F098FC07900A20FEF712FA1E
:1041A000079B32000293069B29000193059B380070
:1041B0000093049BFEF7F2FCFEF718FD084920006F
:1041C00004F0C7FF2000074904F0E8FF09B0F0BD84
:1041D000B8410020572A0100E0930400710B002031
:1041E0009D2A01001C0400200023190070B50D4C0D
:1041F0001A1901331170962BFAD100250A4E30009E
:1042000006F020FE002807DD962D05D0300006F0D0
:1042100005FF60550135F1E72100044804F099FFDE
:10422000200070BDED0E00202C040020B8410020BD
:1042300070B50026A4B0274901A807F0A6F82649C2
:1042400004A807F0A2F8254C10AD200024492E70D8
:1042500005F038FC2000234904F07BFF0A222100EE
:1042600007A805F071FC07A9200004F08DFF01A943
:104270000DA807F0CDF807A90DA807F039F901A995
:1042800007F036F904A907F033F901000AA807F08E
:10429000BFF80DA807F031F83300502229000AA812
:1042A00007F047F929001048FDF744FF9620400029
:1042B000FEF788F9FFF798FF0AA807F01EF807A88D
:1042C00007F01BF804A807F018F801A807F015F884
:1042D00024B070BDB12A0100582C0100B841002063
:1042E000983A0000B32A01002C04002010B5642481
:1042F000FFF77AFF07490BF0D8FB002807D10A30F7
:10430000013CFEF75FF9002CF2D1200010BD012026
:10431000FCE7C046C82A010010B50B4C0B49200031
:1043200004F03CFF0A490B48FDF704FFFA20800027
:10433000FEF748F9FFF7DAFF0749002800D10749DF
:10434000200004F02BFF10BDB8410020CB2A010053
:10435000EE2A01002C040020FB2A01000A2B010098
:10436000074910B50748FDF7E5FEFFF7BFFF06490F
:10437000031E064800D1064904F010FF10BDC046D8
:104380001B2B01002C040020272B0100B84100202A
:104390003B2B010070B50E4C0E4D20002900FDF79F
:1043A000C9FE6420FEF70EF929002000FDF7C2FEC9
:1043B000FFF79CFF08492000FDF7BCFEFFF796FFC2
:1043C0000649031E064800D1064904F0E7FE70BD09
:1043D0002C040020502B0100542B0100602B010005
:1043E000B84100206E2B0100F7B5294C2949200067
:1043F00004F0D4FE00210C2007F072FDFA204000EA
:10440000FEF7E0F801210C2007F06AFDFA272248A8
:10441000FEF7D8F80025BF002049200004F0BEFEBA
:104420001F492048FDF786FE1F49200004F091FE39
:104430003800FEF7C7F8FFF759FF061E08D01B49E2
:10444000200004F0ABFE2000194904F0A7FEF7BDE0
:104450006B1C0193022D13D11649200004F09EFE1F
:104460003100102007F03CFD3800FEF7ABF80121C9
:10447000102007F035FD3800FEF7A4F8019DCBE7CA
:10448000042D01D10C49DBE7019D052DC4D1DAE7EC
:10449000B8410020802B01008C0A0000912B010004
:1044A000502B01002C040020A72B0100AA2B010097
:1044B000D4370100B92B0100CC2B010010B504004A
:1044C000FA208000FEF77EF8022C17D1FFF724FFB8
:1044D000FA20C000FEF776F80E490F4804F05EFEA1
:1044E0000021102007F0FCFC0C48FEF76BF896202A
:1044F0004000FEF767F8FFF777FE10BD012CFCD1F6
:10450000FFF70AFFFA20C000FEF75CF8FFF728FF6C
:10451000F3E7C046252C0100B8410020DC0500006F
:10452000F0B54E4D8DB04E492800FDF703FEC82072
:10453000FEF748F8FFF758FE4A492800FDF7FAFD54
:10454000FA208000FEF73EF8FFF74EFE46492800AD
:10455000FDF7F0FDFA200001FEF734F8FFF744FE06
:1045600042492800FDF7E6FDFA204000FEF72AF850
:10457000FFF73AFE3E492800FDF7DCFDC820FEF7B4
:1045800021F8FFF731FE3B492800FDF7D3FD3A48FB
:10459000FEF718F8FFF728FE3849280004F0D9FD87
:1045A000FA20800007F0C6F9FFF71EFE34490BF031
:1045B0007CFA00284BD00024324EF47630000BF009
:1045C00032FA844205D233199B7A33550134E4B26E
:1045D000F4E72D4F300039000BF07EFA002605ACD1
:1045E00000280AD00AF0EEF9B300E0503900013695
:1045F0000020F6B20BF070FAF1E7244E24493000A7
:1046000004F0CCFDA3690434029323690598019357
:10461000E36800930ECCFEF7C1FAFEF7E7FA1D49F6
:10462000300004F096FD1C49300004F0B7FD1B4932
:10463000300004F0B3FD1A492800FDF77BFDFA2095
:104640008000FDF7BFFFFFF7CFFD0DB0F0BD1549AE
:104650000E4804F0A3FDFFF7C7FEF6E72C04002088
:104660003B2C01005A2C0100762C0100842C010007
:10467000922C0100B02C0100B80B0000B92C0100F5
:10468000C32C0100ED0E0020CD2C0100B84100200C
:10469000D22C01009D2A01001C040020D437010007
:1046A000F52C0100032D010010B5054C200006F08B
:1046B000C9FB002803DD200006F0B0FCF5E710BDC3
:1046C0002C04002010B5FFF7EFFF0A490A48FDF758
:1046D00031FDFA204000FDF775FFFFF785FDFEF77D
:1046E00041F8064C03000A212000054A0BF01AF994
:1046F000200010BD152D01002C04002030080020E2
:104700001D2D0100F0B5284E85B0310001A806F03E
:104710003CFE264C2649200004F040FDFA200725E7
:10472000C000FDF74FFF6D42FFF7BEFF214F22494A
:104730003800FDF7FFFCFA208000FDF743FFFFF78C
:1047400053FD1E490BF0B1F9002818D01C49380060
:10475000FDF7F0FCFFF7CAFD00280BD01949200037
:1047600004F01CFD1849200004F018FD2000174932
:1047700004F014FD01A806F0C0FD05B0F0BD200056
:10478000134904F0E6FC2B000222934307D13100C9
:10479000200004F003FD20000E4904F0FFFC013569
:1047A000032DC1D1E6E7C04672540100B841002094
:1047B000202D01002C0400203D2D0100C82A0100FD
:1047C0006A2D01000C2C0100D4370100722D01006C
:1047D000A72B0100842D010010B502280ED10A4933
:1047E0000A4804F0DBFC0121102007F079FBFA20D5
:1047F000C000FDF7E7FEFFF785FF10BD0128FCD1E3
:10480000FFF7C8FDF9E7C046AA2D0100B841002016
:1048100037B50121042007F033FB0121042007F004
:104820005FFB0021042007F05BFB0A20FDF7CAFEB6
:104830000121042007F054FB0A20FDF7C3FE164DAA
:10484000280004F00DFA154C002804D1200014496A
:1048500004F0A4FCFEE71349200004F09FFC2800AC
:10486000114904F077F8002804D120000F4904F022
:1048700095FCFEE70E49200004F06BFC02230022A9
:10488000009320000B4B04F0BAFD280000221721F2
:1048900004F07CF937BDC046840F0020B8410020E9
:1048A000BA2D0100D12D01000080D843E52D010073
:1048B000F92D010000107B40E121F8B5694C490257
:1048C000200005F0F3F996216748890106F09EF96A
:1048D000E1216648490206F099F902210A2007F011
:1048E00043FB02210B2007F03FFB614802F03EFD35
:1048F000604802F091FFFFF78BFF01210D2007F0C8
:10490000BFFA0121052007F0BBFA0121102007F0B2
:10491000B7FA01210C2007F0B3FA0121092007F0B2
:10492000AFFA00210D2007F0DBFA0021052007F087
:10493000D7FA0021102007F0D3FA01210C2007F04C
:10494000CFFA0021092007F0CBFA032212204A49AE
:1049500006F08EFB03220620484906F089FB03225D
:1049600047490E2006F084FBFDF7A2FDFEF7F0FCA0
:10497000FEF79CFB434803F063FF4348FDF722FE2C
:10498000FEF7E4FB414E02283AD1414D20002900B8
:1049900004F004FC3100200004F0DBFBFEF7D6FB42
:1049A0000A220100200004F064FC3A49200004F0CF
:1049B000F5FB2900200004F0F1FB3749200004F04A
:1049C000EDFB06F081FF01270500344E3378002B04
:1049D00042D1200005F0DCF8002806D0304B200042
:1049E00030491F7004F0DAFB377006F06DFF2E4B74
:1049F000401B9842E9D906F067FF37700500E4E7ED
:104A00002A4D2000290004F0C9FB3100200004F0E9
:104A1000A0FBFEF79BFB0A220100200004F029FC0A
:104A20002000234904F0BAFB2900200004F0B6FB63
:104A30000121102007F054FAFA20C00006F07AFF96
:104A400020001C4904F0AAFB64220A210D20FDF776
:104A5000DFFDFFF757FEB0E7642205210D20FDF7CB
:104A6000D7FDF8BDB8410020A83B00202C04002051
:104A7000EC3200202035002005350000FD2000002C
:104A800021210000840F0020B80B0000272E010018
:104A9000072E0100382E0100672E0100562100204C
:104AA000700B0020832E010010270000132E010040
:104AB000572E0100AA2D0100F0B591B00700FEF7B6
:104AC0004DFBFDF79DFB010007A806F05EFCFDF71E
:104AD000B1FB01000AA806F058FCFDF7C5FB010078
:104AE0000DA806F052FC0023062201A907A806F033
:104AF00020FD0023062203A90AA806F01AFD0023C0
:104B0000062205A90DA806F014FD264E01A93000C5
:104B10000AF0CBFF244D002820D02449280004F0BF
:104B200018FB01A9280004F014FB2149280004F017
:104B300010FB3900280004F031FBFEF7FFFB041ED8
:104B40001ED101240DA806F0D8FB0AA806F0D5FB5B
:104B500007A806F0D2FB200011B0F0BD300003A979
:104B60000AF0A3FF0028D8D1300005A90AF09DFF64
:104B7000041E12D00D49280004F0EBFA03A9D1E776
:104B800030000AF050FF0B4DC2B23100280003F094
:104B9000BFFF280003F02FFBD4E72800064904F0EC
:104BA000FDFACFE754080020B84100208F2E010005
:104BB0009E2E0100840F0020A22E0100F7B50023D5
:104BC0003022464DEA540133C82BFBD10027C35D88
:104BD000EB550137FB2FFAD12B000022FB331A7063
:104BE000FEF7ACFB3E4C3F4E002867D004230093F9
:104BF0003D49200004F0ADFA2900200004F0CEFA6F
:104C0000FB222900300003F083FF300003F0F3FAA9
:104C100006F05AFE0022354B01901A70FA2130003E
:104C2000C90003F0F2FA002832D0304F30003900CA
:104C30002F4A03F061FE00282AD038002D490AF0DF
:104C400034FF002824D02800FEF788FA3800FDF74A
:104C500033FD00281CD02849200004F07AFA3900DE
:104C6000200004F09BFA2549200004F072FA30007D
:104C700003F02AFB0A220100200004F0E4FAFA21E2
:104C8000FA20C900800006F02EFBFDF79BFC10E027
:104C900006F01AFE019BC01AFA23DB009842BDD32E
:104CA0002000174904F07AFA009B013B0093002B87
:104CB0009ED1FA208000FDF785FCF7BD0A4920004F
:104CC00004F047FA2900200004F068FA3A002900AD
:104CD000300003F01DFF6420D7E7C046C00C002061
:104CE000B8410020840F0020B72E01006108002089
:104CF0004000002004000020C92E0100E92E010020
:104D0000F02E0100F0B5834C0500A5440C0082494B
:104D1000200006F0FAFB002803D020007F4906F0AF
:104D200067FB7F4903A806F030FB7E4906A806F022
:104D30002CFB7D4E09A8310006F027FB29000CA8AA
:104D400006F023FB310012A806F01FFB724951A8A0
:104D500006F01BFB51AA12A90CA806F067FC51A88B
:104D600006F0CBFA12A806F0C8FA0023FA2212A91C
:104D70000CA806F0DEFB03A951A806F049FB06A922
:104D800051A806F0B5FB210006F0B2FB06A906F01B
:104D9000AFFB09A906F0ACFB01000FA806F038FB39
:104DA00051A806F0AAFA0023FA2251A90FA806F08A
:104DB000C0FB5E4D5E49280004F0CBF921002800BD
:104DC00004F0C0F928005B4904F0C3F912A92800D7
:104DD00004F0E4F906F078FD0190FFF765FC564C0D
:104DE00051A92000FDF7A6F96420FDF7EBFB12A9FD
:104DF0002000FDF79FF9C8204000FDF7E3FBC8261F
:104E00001A21200006F0A8F8002501277600C82006
:104E1000FDF7D8FBFFF7E8F9484C010020000AF045
:104E2000B5FD200046490AF040FE00281BD0454948
:104E30003E4804F09FF91E2202210D20FDF7E8FBF9
:104E40000FA806F05AFA0CA806F057FA09A806F0BF
:104E500054FA06A806F051FA03A806F04EFA912378
:104E60009B009D44F0BD200037490AF01EFE00283B
:104E700024D036492D4804F07DF92F4C1B21200009
:104E800006F06AF8C820FDF79DFBFFF7ADFAFFF7C3
:104E900039FCFFF709FC51A92000FDF74BF964200C
:104EA000FDF790FB12A92000FDF744F93000FDF753
:104EB00089FB1A21200006F04FF83D0006F004FDA2
:104EC000019BC01A224B9842A1D9002D9FD11A4CA8
:104ED0001B21200006F040F81E49144804F04AF94E
:104EE000FFF782FAFFF70EFCFFF7DEFB51A9200067
:104EF000FDF720F96420FDF765FB12A92000FDF7FE
:104F000019F9C8204000FDF75DFB1A21200006F0CA
:104F100023F895E7BCFDFFFF72540100740B0020DD
:104F2000FC2E0100B12A0100582C0100B8410020DC
:104F3000052F0100122F01002C040020ED0E00208F
:104F4000162F01001C2F0100222F0100282F010025
:104F50000F270000382F0100F0B58FB00390FDF748
:104F600025F9FDF743FE002319004B4C1A190133B4
:104F70001170C82BFAD1039B012B00D072E00222E2
:104F80004649200009F092FDFDF720F914220100A6
:104F900020000AF04FFD424920000AF017FD414D64
:104FA000200029000AF012FDFDF714FE09F0FEFBB7
:104FB0003D4E0090019132000A2105A80AF0B2FC92
:104FC0000A2205A920000AF035FD290020000AF078
:104FD000FDFC364B364F186809F0E8FB32000090B4
:104FE0000191072138000AF09DFC072239002000BA
:104FF0000AF020FD290020000AF0E8FCFEF79EF8E8
:10500000FDF716FA09F0D2FB3200009001910A2157
:1050100008A80AF087FC0A2208A920000AF00AFD65
:10502000290020000AF0D2FCFFF74CFB042201000B
:1050300020000AF0FFFC290020000AF0C7FC0C2227
:105040001C4920000AF0F6FCFA204000FDF7BAFAED
:10505000039B012B0ED12000FFF7B0FDFDF794F864
:105060000FB0F0BDFDF7B2F81422010020000AF0E5
:1050700008FD90E70BA8FDF739F90BA92000FFF711
:1050800041FE0BA806F039F9FA204000FDF79AFA24
:10509000FDF7FCFAE2E7C046A80A0020FD24010063
:1050A000D332010016250100F8240100D40D0020A0
:1050B000410000201C04002070B586B00500FDF7FB
:1050C00095FD274801A9FDF750F8142201A92548AC
:1050D00009F0ECFC2449254804F060F80023244C36
:1050E0002370012D24D8FDF771F81422010020004F
:1050F0000AF0C7FC1F4920000AF068FC1E4E300071
:105100000AF091FC3100020020000AF093FC012D0E
:105110001BD801A8FDF7EAF8200001A9FFF7F2FD6E
:1051200001A806F0EAF80122144B1A6006B070BD1F
:1051300002221349200009F0B9FCFDF747F81422B8
:10514000010020000AF076FCD4E7022D03D12000F4
:10515000FFF734FDE7E720000A490AF037FCF6E7DD
:10516000A80C0020422100204E2F0100B841002051
:10517000FA300020642F01001C040020A40A002043
:10518000FD24010007250100F0B5244F002339005C
:105190008DB004AD2B700AF09FFC214E041E18D078
:1051A0002049300003F0FAFFFDF7D0FF022805D1B7
:1051B0002000FFF703FD39000020ECE701A8FDF710
:1051C00095F8200001A9FFF79DFD01A806F095F8CC
:1051D000F1E7FDF7EFF901A90A2206F010FCFCF750
:1051E000F5FF0522010028000AF024FC0E492800E2
:1051F0000AF0ECFB01A80AF016FC01A90200280045
:105200000AF018FC28000AF00EFC28184470290047
:10521000300003F0C3FF0DB0F0BDC046461D0100D5
:10522000B8410020792F0100932F0100F7B5962196
:105230007F4D89010090280005F0E8FCFCF7B6FFDF
:1052400006F042FB0190FDF7D1FCFDF77FFFFDF773
:10525000F9F9FA204000FDF7B5F90023754C009AE2
:105260002370012A01D0744A1370FDF793F80100EE
:1052700020000AF0D0FB714920000AF0A7FB0C22A5
:105280006F4920000AF0D6FB6E4F2100380003F072
:1052900085FF21002800FCF74DFF38006A4903F024
:1052A0007DFF6A4E3468002C00D09BE006F00CFBBA
:1052B000019BC01A664B984207D906F005FB019086
:1052C0000098FFF7F9FE012333600022614EA31915
:1052D00001341A70FA2CFAD1230032000A21280076
:1052E00004F01CFC30000AF09EFB5A4C012815D932
:1052F000300059490AF0D9FB00280BD02A212000A0
:105300000AF071FB002826D15449380003F046FF0B
:10531000534940E03100380003F040FF20004E497F
:105320000AF0C3FB061EE9D120004E490AF0BDFB7E
:105330000028B6D04C492800FCF7FCFEFA204000BB
:10534000FDF740F93800494903F028FF01223F4B9F
:1053500026701A60A5E73800454903F01FFF009B3F
:10536000012B1CD8002620000AF05DFB864205D2E6
:10537000A3199B78A3550136F6B2F4E72000FDF798
:10538000F3F8642202210D20FDF742F93949380073
:1053900003F004FF34492800FCF7CCFE81E7009BB2
:1053A000314E063B012B10D8334920000AF00EFB8A
:1053B0000A2006F0BFFA2000FFF700FC6422022159
:1053C0000D20FDF725F93100E5E72000FDF7CCF8C9
:1053D000642202210D20FDF71BF93800274903F054
:1053E000DDFEF0E7FDF7B2FEFDF73EF9280005F01F
:1053F00022FC1148FFF7C8FE0423009898430228B6
:1054000009D1FA20C000FDF7DDF8FDF797FEFDF7A2
:10541000DDFCFFF7D3FB04210D205A22FDF7F8F83D
:10542000002301223360164B1A70FCF7ADFEF7BD66
:10543000A83B0020880A0020A2110020A52F01000F
:105440001C040020B8410020A72F0100A40A00205E
:1054500050340300FA300020FD2401000430010024
:10546000173001001A300100C82A01002330010062
:10547000C42F0100DD2F010007250100ED2F0100E1
:105480000C0C0020F0B50024DC4B89B01C60DC4B18
:1054900002901C70FCF78AFEDA4B1C7006F014FABE
:1054A000D9490390D94803F079FE0194D44C25786A
:1054B000002D00D053E2D64F380003F00AFB00283D
:1054C0003ED0D44CD44E22003100380003F014FA00
:1054D000002835D02B002278D04C9A4203DDF15CB5
:1054E000E1540133F9E700232000CD49A3540AF029
:1054F000DCFA061E00D189E03C2203210D20FDF7D5
:1055000087F8029B012B02D0033B022B59D82000C5
:105510000AF089FA854205D263199B7863550135F3
:10552000EDB2F4E7FDF70AFF002840D02000FFF7B6
:10553000C3FA002820D02000FDF7D2F8002828D197
:1055400006F0C2F9039BAE4CC01AB64B984208D97C
:1055500006F0BAF90390FDF7F9FDFDF78BFC012386
:105560002370A64B029A1B68042A00D0ECE1022BA0
:105570009CD10123237099E7FDF7D4FE00280CD0BD
:105580002000FDF7ADF80028DAD0A7499F4803F0C6
:10559000E0FD2000FCF7E8FFD2E79C4DA34928007E
:1055A00003F0D7FD2100280003F0F8FDC8E7974D70
:1055B0009F49280003F0CDFD2100280003F0EEFDF7
:1055C000B9E7924D9B49280003F0C3FD2100280054
:1055D00003F0E4FD2000FCF7C7FF380002F074FE82
:1055E0000A22010005A805F047FF934C05A92000F9
:1055F00005F018FF05A805F080FE9049280003F08B
:10560000A8FD2100280003F0BFFD99E720008C4988
:105610000AF04BFA002800D16FE12000FFF74CFAA6
:105620007A4D002800D154E1744A136801331360A5
:10563000029B042B72D1019B824901332800019304
:1056400003F087FD0A222800019903F0FCFD019B6D
:10565000012B27D1380002F037FE0A22010005A8ED
:1056600005F00AFF744F05A9380005F0DBFE05A818
:1056700005F043FE7149280003F06BFD3900280056
:1056800003F082FD210005A8FCF744FF6E4C3300B7
:105690002100642205A805F04CFF05A805F02DFEA9
:1056A0006A497CE7019B022B00D049E7380002F0F1
:1056B0000BFE0A22010005A805F0DEFE644F05A9D5
:1056C000380005F0AFFE05A805F017FE5B4928007D
:1056D00003F03FFD3900280003F056FD210005A826
:1056E000FCF718FF5B4C33006422210005A805F08D
:1056F00020FF05A805F001FE5749280003F029FD09
:105700002100280003F04AFDFA204000FCF75AFF70
:10571000FDF71CFDFDF7AEFB019611E7029B052B83
:1057200000D0A3E0019B4D4901332800019303F011
:1057300010FD0A222800019903F085FD019B012B31
:1057400088D0019B022B26D1380002F0BDFD0A2231
:10575000010005A805F090FE05A93D4805F062FE90
:1057600005A805F0CAFD3549280003F0F2FC3249CE
:10577000280003F009FD210005A8FCF7CBFE354CFD
:1057800033002100642205A805F0D3FE05A805F02A
:10579000B4FD314903E7019B032B00D0D0E638006C
:1057A00002F092FD0A22010005A805F065FE05A998
:1057B0002B4805F037FE05A805F09FFD28001F497E
:1057C00003F0C7FC2800224903F0DEFC210005A8F5
:1057D000FCF7A0FE234C33006422210005A805F04D
:1057E000A8FE05A805F089FD28001F4903F0B1FCBB
:1057F0002100280003F0D2FC8AE7C0468C0C002070
:10580000D90D0020A21100203A300100B84100203B
:10581000840F0020400000208D090020DA0D0020B8
:10582000FD240100E0930400563001008F30010098
:105830009F300100AF30010000320020E92E01004E
:1058400000250100BF30010048000020D2300100D7
:105850000C320020AC000020E1300100C830010013
:105860001832002010010020F0300100380002F052
:105870002BFD0A22010005A805F0FEFD444F05A9F5
:10588000380005F0CFFD05A805F037FD2800414997
:1058900003F05FFC3900280003F076FC210005A826
:1058A000FCF738FE3C4C33006422210005A805F0CB
:1058B00040FE05A805F021FD2800384903F049FC09
:1058C0002100280003F06AFCFDF740FCFDF7D2FA46
:1058D00036E63349280003F03CFC2100280003F0A1
:1058E0005DFCFDF71FFD002800D129E62000FCF734
:1058F000F7FE002800D123E614E02000FFF7DCF8D3
:105900002849002817D020000AF0CFF8002800D03E
:1059100016E6254D2549280003F01BFC2100280030
:1059200003F03CFC2000FCF71FFE1A49280003F09E
:1059300010FC174966E620000AF0B7F8002800D0EE
:10594000FEE5194D1A49C5E7029A052A03D1032B32
:1059500000D0ABE50DE6012B00D0A7E509E6029BE0
:10596000012B02D01348FFF70FFC0023124A03213A
:105970001370094A0D201370104A23701370104AD7
:1059800013705022FCF744FEFCF7FEFB09B0F0BD9B
:1059900000320020E92E010048000020FF30010005
:1059A0001231010004000020B8410020363101000E
:1059B00051310100A21100200C0C0020AC0000208D
:1059C00010010020F0B50922BA49B5B004000AF070
:1059D00047F8051E4CD1B84EB849300003F0DEFB45
:1059E0002000B74F093039000AF076F8390004007A
:1059F00028000AF071F801001BA805F0C6FCB14FA1
:105A00001BA9380005F00EFD1BA805F076FCAE4979
:105A10000EA805F0BAFCAD491BA805F0B6FC1BAA00
:105A20000EA9380005F002FE1BA805F066FC0EA8C2
:105A300005F063FCA64D3900280005F0D9FC2900CB
:105A4000300003F0A1FB2000FCF772FE002800D11B
:105A5000FCE001229F4B29001BA81A7005F0D8FC1E
:105A60009D481BA9FFF74EF91BA805F046FCEDE089
:105A70000A222000994909F0F3FF00281ED1984915
:105A80008D4803F08BFB20008D490A300AF024F882
:105A9000FCF74EFE002800D1D8E08E4B1B78002B7F
:105AA00000D1D3E0FDF752FB040089491BA805F0A3
:105AB000AFFC20001BA9FFF7B9FBD5E70C222000A3
:105AC000884909F0CDFF051E55D17B4E864930002F
:105AD00003F064FB20007A4F0C30390009F0FCFF22
:105AE00039000400280009F0F7FF0100070030002A
:105AF00003F054FB2000FCF71BFE002800D1A5E0BA
:105B0000744B1B78002B00D1A0E0784C3900601C4E
:105B100009F081FF0E2221001BA808F0C7FF744C7A
:105B20002000FCF71CFB1BA92000FCF711FB1BA8A5
:105B3000FCF7DCFB2B0032220EA91BA805F0F9FCB8
:105B40001BA805F0DAFB13226A491BA808F0AEFF78
:105B500032220EA91BA809F06DFF1BA9300003F02B
:105B60001DFB5B490BA805F053FC0BA91BA8FFF715
:105B7000C9F80BA879E70D2220005F4909F070FFF2
:105B8000051E36D14C4E5D49300003F007FB200066
:105B90004B490D3009F0A0FF0EAF1BAC3D702570D6
:105BA000FCF7C6FD002851D04A4B1B78002B4DD086
:105BB0000BA8FCF79BFB2B001E2239000BA805F05D
:105BC000B8FC0BA805F099FB17224D49200008F0FE
:105BD0006DFF1E223900200009F02CFF210030004B
:105BE00003F0DCFA3A490BA805F012FC20000BA9DF
:105BF000BDE705222000434909F032FF051E27D1E9
:105C00002D4E4149300003F0C9FA2D49601D09F0BD
:105C100063FFFCF78DFD002818D02E4B1B78002B5E
:105C200014D02B491BA805F0F3FB1BA93748FFF73D
:105C300069F81BA805F061FB3549300003F0AEFAA6
:105C4000FA212A003348C90003F05EF935B0F0BDEF
:105C500006222000304909F003FF002864D1164DC8
:105C60002E49280003F09AFA1549A01D09F034FFC7
:105C7000FCF75EFD0028E9D0164B1B78002BE5D021
:105C80002749280003F08AFA122226491BA808F0A7
:105C90000DFFFCF7B3FB322201001BA809F0CAFE7E
:105CA0000B490EA805F0B4FB0EA91BA8FFF72AF8B4
:105CB0000EA8DAE686310100B841002090310100DB
:105CC0004F310100F4310020D4370100725401003B
:105CD000E00E0020EC0E0020A1310100B4310100E3
:105CE000BF310100FC310100D2310100E40B002082
:105CF000900C0020E7310100FB3101000932010066
:105D0000253201003D320100433201005E320100C4
:105D1000AE320100A43B0020CE320100D53201009A
:105D2000EF3201000933010008222000B64909F0D2
:105D300097FE051E42D12000B44F0830390009F00B
:105D4000CBFE39000600280009F0C6FEB04D010068
:105D50000400280003F022FA2800AE4903F01EFADE
:105D60003000FCF7E5FC002800D16FE7AA4B1B7858
:105D7000002B00D16AE7A94E2100701C09F04BFEF0
:105D8000332231001BA808F091FEA54C2000FCF73F
:105D9000E6F920001BA9FCF7DBF90E22A1491BA89C
:105DA00008F084FEFCF72AFB322201001BA809F050
:105DB00041FE28001BA903F0F1F971E70B22200036
:105DC000994909F04DFE051E00D097E0904E974985
:105DD000300003F0E3F91BAB210030001D7003F02D
:105DE000DDF9200089490B3009F076FE904C0890CF
:105DF0002100280009F070FE21000490280009F01D
:105E00006BFE21000590280009F066FE2100069037
:105E1000280009F061FE21000790280009F05CFECF
:105E200021000990280009F057FE210007002800F2
:105E300009F052FE0400049808F0C4FD049005988F
:105E400008F0C0FD0500069808F0BCFD0590079815
:105E500008F0B8FD0690099808F0B4FD07903800E6
:105E600008F0B0FD0700200008F0ACFD0400089821
:105E7000FCF75EFC002800D1E8E6674B1B78002B9E
:105E800000D1E3E60A220499300003F0DCF90A228B
:105E90002900300003F0D7F90A220599300003F0F9
:105EA000D2F90A220699300003F0CDF90A220799A7
:105EB000300003F0C8F90A223900300003F0C3F9BA
:105EC0000A222100300003F0BEF9079B2900059A41
:105ED000049800930294069B0197FCF75FFEFCF781
:105EE00085FE132253491BA808F0E0FD52490C22FD
:105EF0001BA809F09FFD30001BA95CE70E222000C3
:105F00004E4909F0ADFD051E49D1414F4C493800BD
:105F100003F044F91BAE06AB210038001D75357047
:105F200003F03CF9200039490E3009F0D5FD37491E
:105F30000490280009F0D0FD08F044FD0400049806
:105F4000FCF7F6FB002800D180E6334B1B78002BD2
:105F500000D17BE60A222100380003F074F9210009
:105F60003848FDF7D2F8FDF7F3F9374902000BA8DE
:105F700009F00CFD16223549300008F097FD0A2281
:105F80000BA9300009F056FD3100380003F006F986
:105F90002F490EA805F03CFA30000EA986E604222F
:105FA00020002C4909F05CFD002800D04EE6184E78
:105FB0002349300003F0F2F8002314491BAD201DE3
:105FC0002B7009F089FDFCF7B3FB002800D13DE6FA
:105FD000114B1B78002B00D138E615221E492800F2
:105FE00008F064FDFCF7D6F908220100280009F04A
:105FF00021FD2900300003F0D1F815490EA805F065
:1060000007FA28000EA951E6D33901004F310100EB
:10601000B8410020D2310100EC0E0020980B002086
:10602000CC0B00201C3301002B330100373301005F
:10603000162501009D2A01001C040020493301009F
:10604000583301005C0900201D2D01006D33010053
:10605000E00E0020843301008933010010B50A28C6
:106060000AD00D2813D00D4A1368FE2B0FD8591CE7
:1060700011600B4AD0540AE00023084C08482268FB
:106080008354994204D1FFF79DFC0023236010BD87
:106090000100044803F082F8F7E7C0462C0800200E
:1060A0002C070020B8410020F0B5CC4DC3B029002A
:1060B00004A805F06AF9290007A805F066F905F0BB
:1060C00003FC0700C6493800FCF7AEFCC54C0A22A9
:1060D0002100060010A803F037FD10A904A805F060
:1060E000A1F910A805F009F9290004A805F00DFA96
:1060F000002801D0002EE5D004A805F04DFBBA49D8
:106100000DA805F042F9290010A805F03EF910AAE3
:106110000DA904A805F08AFA10A805F0EEF80DA85C
:1061200005F0EBF8002E06D0B049AE4803F036F883
:106130000122AF4B1A70AF4B1B78002B03D0A9483C
:1061400004A903F021F83D2104A805F01BFA03007F
:10615000421C0ED104A907A805F04AF9A64907A8D0
:1061600005F0D3F9002811D0A4499E4803F016F891
:106170000AE1002204A910A805F030FA10A907A826
:1061800005F050F910A805F0B8F8E7E79C4907A812
:1061900005F0BBF9071E03D00122964B1A70E3E706
:1061A000984907A805F0B1F9061E02D0914B1F705F
:1061B000DAE7954907A805F0A8F9002800D193E08F
:1061C0009249884802F0C5FFFCF7E8FFFCF7BEFFE4
:1061D000041E15D1FDF79EF8FEF7FEFA2000FEF72B
:1061E000BBFEFBF7E3FF10A8FCF780F8012010A925
:1061F000FFF71CF810A805F080F8FBF7D7FF23E0A5
:10620000FCF7A4FF012824D1FFF73CF9FBF7CEFFF0
:106210007F4C2378002B03D0FDF77CF8FEF7DCFAE7
:1062200010A8FCF763F810A90120FEF7FFFF10A8E3
:1062300005F063F8FBF7BAFF0020FEF78DFEFBF7D1
:10624000B5FF2378002B15D0FDF764F8FEF736F97B
:1062500010E0FCF77BFF040002280DD110A8FCF72A
:1062600045F8200010A9FEF7E1FF10A805F045F859
:10627000FBF79CFF674978E7FCF768FF04000328F9
:106280000CD1FDF747F8FEF7A7FA3000FEF764FEE1
:10629000FBF78CFF2000FFF7F5F8AEE7FCF756FFA1
:1062A00004000428EDD0FCF751FF05280AD1FDF7C2
:1062B00031F8FEF791FA0020FEF74EFEFBF776FF6D
:1062C0000520E8E7FCF742FF0628D3D1FDF722F8C6
:1062D000FEF782FA0020FEF73FFEFBF767FFFA2089
:1062E0008000FCF76FF9AFE74B4907A805F00DF9FF
:1062F000002841D03B4E4949300002F02AFFFCF70C
:1063000015FF474D002827D1286808F04FFA0200F2
:106310000B0006F033FC0B0002210200009130005C
:1063200003F06DF81420FCF74DF93E49200002F00F
:1063300010FF286808F03AFA0B00022102000091D1
:10634000200003F055F83849200002F027FFFCF741
:106350009DF93049200009E7FCF7E8FE012807D144
:10636000286808F023FA0022304B07F077FBD2E7C9
:10637000286808F01BFACEE72D4907A805F0C5F8F4
:10638000002809D0FCF7FEF907A804F0B6FF04A81E
:1063900004F0B3FF43B0F0BD264907A805F0B5F8F7
:1063A00000284BD00F4C2449200002F0D2FEFCF70D
:1063B000CDFE0A220100200002F05BFFFCF704FB87
:1063C000FCF76EFB002801D0FDF7DAFA1149200036
:1063D00002F0E4FE0A222100E5E0C046725401000A
:1063E000E0930400B8410020582C01009F330100C5
:1063F000710B00208C090020B4330100C82A010071
:1064000045270100B733010099270100BC33010083
:106410003F000020CE3301001F2701000B260100A2
:10642000D40D0020F63301000934010000001440AF
:10643000CA390100673901000D340100D04907A8AD
:1064400005F063F8002811D0FCF7D0FBCD4CCE4905
:10645000200002F07EFECD49200002F09FFEFCF7F6
:106460001FFB0028B2D0FDF751FEAFE7C84907A8CF
:1064700005F04BF8002838D1C64907A805F045F8C3
:10648000002832D1C44907A805F03FF8002834D1CC
:10649000C24907A805F039F8002800D1F7E0C04943
:1064A000200002F056FE10A8FBF720FF10A92000E4
:1064B00002F06AFE10A804F020FF2900200002F07C
:1064C0006DFEB849200002F069FEB749200002F0D5
:1064D00065FEB649200002F061FEFCF7E1FA0028F3
:1064E00001D0FDF779F8A74C70E7A64CB049200021
:1064F00002F054FEFEF714F82BE7FCF727FEA14D3F
:10650000012812D1AB49280002F023FEFBF75EFE02
:106510000100280002F042FEA749280002F019FEFF
:10652000FBF76EFE010028002FE0FCF70FFE0328AA
:106530000BD1A249280002F00CFEFBF747FE010038
:10654000280002F02BFE9E49E7E7FCF7FFFD042838
:1065500030D19A49200002F0FCFDFBF737FE010024
:10656000200002F01BFE9649200002F0F2FDFBF72E
:1065700047FE0100200002F011FE9249200002F0C7
:10658000E8FDFBF757FE0100200002F007FEFCF7D4
:1065900087FA002801D0FDF7F1FA8B49280002F0B4
:1065A000FDFD0A22290010A803F0CEFA10A804F07D
:1065B000A4FEE9E6FCF7CAFD052824D17F492000A6
:1065C00002F0C7FDFBF702FE0100200002F0E6FD2D
:1065D0007B49200002F0BDFDFBF712FE0100200008
:1065E00002F0DCFD7749200002F0B3FDFBF722FE4C
:1065F0000100200002F0D2FD7449200002F0A9FD44
:10660000FBF732FEBFE7FCF7A1FD0D2838D16B493F
:10661000200002F09EFDFBF7D9FD0100200002F0F2
:10662000BDFD6749200002F094FDFBF7E9FD010084
:10663000200002F0B3FD6349200002F08AFDFBF761
:10664000F9FD0100200002F0A9FD6049200002F0E0
:1066500080FDFBF709FE0100200002F09FFD5C4970
:10666000200002F076FDFBF719FE0100200002F089
:1066700095FD5849200002F06CFDFBF723FE82E7F0
:106680005549280002F065FDFBF7A0FD4AE7534994
:1066900007A804F03AFF00280FD0FDF7A5FEFEF78B
:1066A00031F8384C4E49200002F053FDFEF70AF84D
:1066B0000100200002F072FD4BE64A4907A804F0F1
:1066C00024FF00281ED04849200002F042FDFCF7BC
:1066D0002DFD0A220100200002F0CBFD43492000DD
:1066E00002F05CFD4249200002F058FD41492000C3
:1066F00002F054FDFCF7D4F9002800D1F3E6FDF7D1
:10670000BFF8F0E63C4907A804F0FFFE002815D0CA
:106710001C4C3A49200002F01CFDFCF719FE0A222D
:106720000100200002F0A5FDFCF72AF9FCF7B8F9FA
:10673000002800D14AE6FDF79BF947E6304907A853
:1067400004F0E3FE002863D02E49200002F001FD92
:10675000FCF7F4FC0A220100200002F08AFD2A491D
:10676000200002F01BFD2949200002F017FDFCF774
:1067700097F9002800D1B6E6FDF7C2F8B3E6C046A7
:10678000A71E0100B84100201B3401001C0400209A
:1067900027340100885601006F560100B234010011
:1067A000B4340100C4340100DC3401000A350100B6
:1067B000313401007325010089250100673401008F
:1067C000B0250100C7250100CE330100DE25010000
:1067D000763401008D340100A4340100473A0100F1
:1067E000383501003E3501004035010056350100C5
:1067F0007E350100A3350100F2380100C8350100E3
:10680000BD310100E0350100FC3501001136010009
:10681000D74907A804F079FE002840D005F054F8C5
:10682000D44C0500D449200002F093FC200003F072
:10683000AFF9002808D12800D049FCF7F5F8002866
:10684000F4D00122CE4B1A70200003F0A1F90028E9
:1068500000D10FE50A2221000AA803F075F90AA960
:10686000200002F091FC0023C82210A90AA804F01D
:1068700060FEC449C448FBF75DFC96204000FBF76E
:10688000A1FE0DA8FBF732FD0DA910A8FEF73AFAFC
:106890000DA804F032FD0AA804F02FFDEAE4BB497C
:1068A00007A804F032FE00281ED0B949200002F0EB
:1068B00050FCFCF72FFD0A220100200002F0D9FC59
:1068C000B449200002F06AFCB349200002F066FCE3
:1068D000B249200002F062FCFCF7E2F8002800D187
:1068E00001E6FDF787F8FEE5AD4907A804F00DFEC7
:1068F000002802D0FDF79CFCBCE4AA4907A804F0DC
:1069000004FE002812D09B4CA749200002F021FC75
:10691000FBF740FD0100200002F01BFCFCF7C0F873
:10692000002800D152E5FDF7DDF84FE59F4907A8A3
:1069300004F0EBFD002800D1BAE09D49200002F0F0
:106940002DFC2900200002F004FCFCF74FF99949C6
:10695000200002F0FEFB9849200002F01FFC97493E
:10696000200002F0F6FBFCF7F3FC9549002814D058
:10697000FCF7EEFC934901280FD0FCF7E9FC9249A3
:1069800002280AD0FCF7E4FC9049032805D0FCF764
:10699000DFFC8F49042800D08E49200002F0FEFB66
:1069A0008D49200002F0D5FBFCF7F8FB8B49200055
:1069B00002F0CFFBFBF7EEFC0100200002F0EEFB43
:1069C0008749200002F0C5FBFCF7B0FB8549002891
:1069D00005D0FCF7ABFB8449012800D08349200097
:1069E00002F0DCFB8249200002F0B3FBFCF7A6FBBF
:1069F000FBF71EFD07F0DAFE0B00022102000091FA
:106A0000200002F0F5FC7B49200002F0C7FB7A4928
:106A1000200002F09EFBFCF791FB7849012800D092
:106A20007749200002F0BAFB7649200002F091FB82
:106A3000FCF7D0F807F0BAFE0B000221020000912B
:106A4000200002F0DCFC2900200002F082FBFCF7B1
:106A50007DFB022801D1FFF70DFC6B49200002F0FD
:106A600078FB10A8FBF742FC10A9200002F08CFB79
:106A700010A804F042FC6549200002F06AFBFCF714
:106A800049FC6349012805D0FCF744FC6149022810
:106A900000D06149200002F081FB60493A48FBF7D1
:106AA00049FBC820FBF78EFDFDF79EFBFFF7E2FBDD
:106AB0005B4907A804F029FD041E15D0FCF73EFC35
:106AC0002C4C011E574808D00121FCF71EFB642006
:106AD000FBF778FD544920001AE0FCF716FB642010
:106AE000FBF770FD5149F6E7514907A804F00DFD89
:106AF000002819D0FCF716FC1E4D031E4D480BD084
:106B00002100FCF702FB6420FBF75CFD4A492800EA
:106B100002F044FBFFF7AEFB0121FCF7F6FA64201C
:106B2000FBF750FD4549F2E7454907A804F0EDFCA5
:106B3000002802D0FBF7BAFE26E4424907A804F079
:106B4000E4FC0C4C002800D180E03F49200002F01A
:106B500000FBFBF753FC0100200002F01FFBFBF7DA
:106B60009FFF002800D131E4FDF774FA2EE4C046FF
:106B7000A7240100B841002027360100E09304005B
:106B8000710B0020502B01002C040020F82601007E
:106B90003F3601005836010070360100933601007F
:106BA000183001000D3B0100A836010087330100B9
:106BB000BA360100D43601001C040020E63601007C
:106BC000A9370100F83601002037010047370100DE
:106BD00074370100A1370100C4370100D637010026
:106BE000E8370100FA3701000F38010021380100B1
:106BF0003338010045380100473801005938010099
:106C0000603801006A3801007C3801008E380100CC
:106C1000A0380100BB380100D0380100DA3801008B
:106C2000E93801003C080020F43801002739010050
:106C300059390100740900206939010094390100B3
:106C4000C9390100CC390100DC390100C34907A86A
:106C500004F05BFC002824D1C14907A804F055FCCE
:106C600000281ED1BF4907A804F04FFC002831D1ED
:106C7000BD4907A804F049FC002864D0BB492000A6
:106C800002F067FAFCF75AFAFBF7D2FB07F08EFD29
:106C90000B00022102000091200002F0B0FBFFF780
:106CA00058FB2000B24902F079FAB24B1A78012A57
:106CB00007D100221A70FBF7E9FC2000AE4902F070
:106CC0006DFA2000AD4902F069FA0022AC4B1A704F
:106CD000FFF75AFBAB49200002F060FA3222032191
:106CE0000D20FBF795FCA849200002F057FAFCF7AD
:106CF00011FBA64DA64E00280AD1A649200002F09D
:106D00004DFA31002800FBF715FA6420FBF75AFC16
:106D100031002800FBF70EFA96204000FBF752FCEA
:106D200020009D4902F03AFA280004F08BF8002870
:106D300001DCFFF79FFA280004F070F90021C0B2CF
:106D4000FFF78CF9F0E7954907A804F0DEFB00286F
:106D500006D0FBF72BFA0120FEF7FEF8FFF7F9FA51
:106D60008F4907A804F0D1FB061E0DD08D492000E5
:106D700002F0EFF9FCF712FAFCF7E8F9FEF782FBF4
:106D8000FBF714FAFFF7E5FA874907A804F0BDFB03
:106D9000002825D010AD854928002E7008F016FE79
:106DA000FBF714FA05220100280008F043FE280032
:106DB0007F4908F00BFE0C227E49280008F03AFEBD
:106DC000280008F030FE281846702800FDF7F6FE6F
:106DD000FCF7B4F9FBF7FAFFFDF7F0FEFFF7B9FA9D
:106DE000754907A804F091FB051E00D05AE47349C9
:106DF00007A804F08AFB00280CD05E4B1A78012A01
:106E000004D11D70FBF742FC5B4964E601226C492A
:106E10001A7060E66B4907A804F077FB051E06D0E0
:106E20006949200002F095F9FBF7D4FE2EE7674987
:106E300007A804F06AFB00285DD010AE1622644952
:106E4000300007F033FEB57504F03EFD6149029055
:106E5000200002F0A3F9FCF779F9FBF7F3FB5E4998
:106E6000200002F09BF9FA200127C000FBF7AAFBE3
:106E700031005A48FBF75EF9039504F025FD029BAB
:106E80000026C01A564B984204D95649564802F07B
:106E900060F93E000023554C039AE2540133FA2B6B
:106EA000FAD122000A214D4802F038FE3220FBF7C9
:106EB00089FB200008F0B7FD4B4D012816D82800AB
:106EC0004B4902F046F9494C4A49200008F0EDFDD3
:106ED000002801D1002ED0D0FCF738F9FBF7C4FB15
:106EE0000023280025492370FFF740F921002800DE
:106EF00002F054F9E7E7404907A804F006FB002830
:106F000017D13E4907A804F000FB002811D13C49E5
:106F100007A804F0FAFA00281CD12F4D2000290000
:106F200002F03CF93749200002F038F92900FFF758
:106F300011FA3549200002F031F9FCF707F9FBF7A7
:106F400081FB3248FBF73EFBFCF700F9FBF78CFBBB
:106F5000FFF7FFF92E49FFF7ACFBC046E739010008
:106F6000EB270100EC390100673A0100083101000C
:106F7000FD390100D80D0020113A0100CE33010087
:106F8000700B0020293A01003F3A01002C04002038
:106F9000493A01003B3A01005C3A0100753A0100B0
:106FA000883A0100973A0100A93A0100FD24010046
:106FB000B83A01001C040020E13A0100E53A010062
:106FC000EF3A0100063B01006A3801000F3B010067
:106FD0008A3B0100123B0100D4370100A83B00208E
:106FE000102700003B3B0100B8410020FA30002090
:106FF000392C0100C82A01004B3B0100B5330100C8
:10700000583B0100793B01005C3B01008813000004
:107010006A3B0100F0B585B0944D2B78012B1CD153
:10702000FFF742F8924B1B78002BF5D0914C924E13
:107030002000310002F0B2F89049200002F0AEF8D2
:107040003100200002F0AAF8FCF764F9FDF736FAE7
:1070500000238B4A2B701370DEE78A4F3B78002B9E
:107060005AD0322205210D20FBF7D2FAFBF78CF81B
:10707000FCF76CF8844C0600844D01282BD1FEF7F8
:1070800001FA200001F0ECFE01A8FBF72FF901A99D
:107090003000FEF7CBF801A804F02FF9200001F032
:1070A000DFFEFCF737F9FDF797FB200001F0D8FE73
:1070B0000020FDF751FF200001F0D2FE032229003D
:1070C000062003F0D5FF200001F0CAFEFCF722F9EC
:1070D000FDF7F4F916E0FCF739F8060002284BD169
:1070E00001A8FBF703F9300001A9FEF79FF801A8FA
:1070F00004F003F9200001F0B3FE0322290006206A
:1071000003F0B6FF200001F0ABFE614801F098FBF0
:107110000023604A3B7013705F4D2B78002B00D129
:1071200086E0282203210D20FBF772FAFCF7F2F823
:107130005A4E5B4C01280AD15A494E4802F02EF8AB
:1071400031002000FAF7F6FF6420FBF73BFA31002C
:107150002000FAF7EFFF96204000FBF733FA2000FB
:1071600003F070FE002858DD200003F057FF0021D7
:10717000C0B2FEF773FFF2E7FBF7E8FF0600032853
:1071800010D1FCF7C7F8FDF727FB200001F068FEDF
:107190000020FDF7E1FE200001F062FE3000FEF766
:1071A00071F988E7FBF7D2FF06000428E9D0FBF766
:1071B000CDFF06000528E4D0FBF7C8FF062814D150
:1071C0003948FCF793FFFCF7A5F8FDF705FB200015
:1071D00001F046FE0020FDF7BFFE200001F040FE5A
:1071E000FCF798F8FDF76AF984E7FCF793F8FDF7E8
:1071F000F3FA200001F034FE0020FDF7ADFE200080
:1072000001F02EFE01A8FBF771F8012001A9FEF79D
:107210000DF801A804F071F84DE7FCF77BF8FDF7D5
:107220004DF903220E20214903F022FF00232B7089
:10723000FCF78EF8FBF73AFF4B20FBF7C3F91C482D
:1072400000F006FB03220E20184903F011FF032271
:107250001220184903F00CFF032206200B4903F00B
:1072600007FFFBF7BDF905B0F0BDC046700B00206D
:10727000710B0020B8410020DC330100A03B01006D
:10728000D80D002029040020A43B0020FD20000090
:10729000840F00200C0C0020300C0020493A010023
:1072A0002C0400203B3A0100B93B010021210000E1
:1072B000203500200535000000207047F8B5050096
:1072C0000E0017000024BC4208D02B682800315D56
:1072D0001B689847002801D00134F4E72000F8BD6E
:1072E00070470300FC33196ADA69914203D01B6AC4
:1072F000C018007E704701204042FBE70300FC33CA
:10730000D8691B6AC01A01D50130FF3070470000F0
:10731000F7B50193FA238027002504009B008360C2
:10732000114B7F0008330E00456029000092036076
:107330003A00183007F0D6FB23002000FC33213040
:10734000DD613A001D622900FF3007F0CBFB872387
:107350009B00E3185D609D60009B20002375019BEE
:107360002661A5756375FEBD0048010070B5040077
:1073700018260C49006902F023FB206902F07DF910
:1073800033000821207D084D4343EB18595604F083
:10739000EBFD0821607D4643AD19695604F0E4FD1C
:1073A00070BDC046A0860100205001008A23002243
:1073B0009B00C1540C3BC3185A609A60012383752B
:1073C00070470200FC32536810B501339468DBB299
:1073D0009C4202D054680155536010BDF7B501932B
:1073E00000230400150018009A422FD02200FC321E
:1073F000D36120691362012202F07CF9002826D0B3
:107400002700206902F0F8F9183701003800FFF76B
:10741000D8FF01262069B5420ED002F04BF90221B7
:10742000206902F051F9206902F0E6F90100380004
:10743000FFF7C7FF0136EDE702F034F9019B002B9F
:1074400003D00321206902F03FF9E8B2FEBD050038
:10745000FBE710B50123FFF7C1FF10BD10B5030016
:10746000827D002082420ED0872292009C186268A2
:10747000A4680132D2B2A24205D02133FF331800F2
:10748000FFF79FFF012010BD0300FC3399685A6885
:10749000914206D09A68805C9A680132D2B29A60B2
:1074A000704701204042FBE700228A2370B59B0011
:1074B000827505000E00C15C006902F01BF900280E
:1074C00006D10321286902F0FFF80224200070BDD4
:1074D000872328009B00EA18536894682130FF3006
:1074E0001C1B01D50134FF34002C0ED02C69FFF792
:1074F000CBFFC1B2200002F03BF90028E8D1032104
:10750000286902F0E1F80324E0E7002EDED0032131
:10751000286902F0D9F8D9E710B50121FFF7C4FFB7
:1075200010BD10B51830FFF7AFFF10BD70B50400E7
:10753000006902F03FF9002814D0206902F048F9F0
:10754000002810D0206902F0B5F80321206902F06C
:10755000BBF88C239B00E558002D39D10023FC3467
:10756000E361236270BD206902F03CF9002809D074
:10757000206902F032F9002804D0206902F037F9BE
:107580000028DFD0206902F02DF9002826D12069DB
:1075900002F019F90028E5D0206902F028F9002846
:1075A00037D087239B00E218536892689B1A01D555
:1075B0000133FF33FF21002B05D020002130FF30A5
:1075C000FFF762FFC1B2206902F0E5F8A075C9E7D4
:1075D000236820001B699847A847BFE7206902F08D
:1075E00069F82069032102F06FF8206902F0FFF8C2
:1075F0000028B7D0872300229B00E3185A609A60C6
:107600000123A3758B239B00E3589342AAD098478C
:10761000A8E72200FC32D369126A0133DBB2206989
:10762000934206D102F03EF80321206902F04CF8A3
:1076300098E702F0E1F8010020001830FFF7C1FEE2
:10764000206902F037F8EFE710B50248FFF76EFF48
:1076500010BDC046EC32002010B51523142202499B
:107660000248FFF755FE10BDAC410020EC3200206F
:10767000F7B50193FA2308AC277809AC26780AAC51
:1076800025780BAC2478DB00994202D3054BC9184E
:1076900089B2019BC7700671457101704270837099
:1076A0008471FEBD30F8FFFFF8B50D002D4C682148
:1076B0002000FFF77BFE00212000FFF7CFFE6F794F
:1076C0000A21380004F096FD06260100714379185E
:1076D0002000C9B2FFF7C2FE2F790A21380004F05A
:1076E00089FD0100714379182000C9B2FFF7B6FE89
:1076F0004023EF780A219F43380004F07BFD01000E
:10770000714379182000C9B2FFF7A8FEA9792000BB
:10771000FFF7A4FEAF780A21380004F06BFD0100EA
:10772000714379182000C9B2FFF798FE6F780A21DB
:10773000380004F05FFD0100714379182000C9B2E0
:10774000FFF78CFE2D780A21280004F053FD4643F4
:10775000AE19F1B22000FFF781FE2000FFF7DCFE3A
:10776000F8BDC046EC32002070B506000D00084C94
:1077700068212000FFF71AFE31002000FFF76EFE9F
:1077800029002000FFF76AFE2000FFF7C5FE70BD4C
:10779000EC32002070B515000C000E201D21FFF703
:1077A000E3FF28000A2104F025FD062601007143AD
:1077B00069180720C9B2FFF7D7FF0A21200004F09B
:1077C00019FD3100414361180820C9B2FFF7CCFF11
:1077D00080210920FFF7C8FF80210A20FFF7C4FF9E
:1077E00070BD000070B50D000A4C68212000FFF745
:1077F000DDFD29002000FFF731FE2000FFF78CFEA1
:10780000012268212000FFF724FE2000FFF789FEF7
:10781000C0B270BDEC32002010B504000B48FFF779
:10782000A5FD1C210E20FFF79FFF0A2004F082F81F
:1078300002212000FFF7D6FFBF2101400220FFF701
:1078400093FF0A2004F076F8012010BDEC320020EE
:1078500010B50F21FFF7C6FFFE2101400F20FFF7F3
:1078600083FF10BD70B50E2105002024FFF7BAFF7D
:107870002043C1B20E20FFF777FF0E212800FFF74B
:10788000B1FF2042F9D170BDF8B511210500FFF715
:10789000A9FF122104002800FFF7A4FF801123068E
:1078A00017D506F02DFF0022144B06F0D7F806007E
:1078B0006042C0B20F0006F023FF0B000200390047
:1078C000300005F05BF906F0B9FF80231B06C018F5
:1078D000F8BD06F015FF0022084B06F0BFF80600C1
:1078E00020000F0006F00CFF02000B0030003900F2
:1078F00005F044F906F0A2FFEAE7C0460000D03FD9
:10790000F0B5314C87B0050068212000FFF74EFD2F
:1079100000212000FFF7A2FD2000FFF7FDFD082257
:1079200068212000FFF795FD2000FFF7FAFD0F27E3
:10793000062603000011764238407043C018C3B2D7
:1079400020000593FFF7EDFD030000113840704360
:10795000C018C3B220000493FFF7E3FD3F23184093
:1079600003117343C018C3B220000393FFF7D9FD7E
:1079700000902000FFF7D5FD030000113840704350
:10798000C018C3B220000293FFF7CBFD0300001123
:1079900038407043C018C3B220000193FFF7C1FD07
:1079A00003111F407E4336182800019B2E706B7018
:1079B000029BAB70039BEB70049B2B71059B6B715F
:1079C000009BAB7107B0F0BDEC32002010B500F0A9
:1079D0003FFB0022024B8000C35849331A7010BD90
:1079E00078350020F0B5040085B01E000AAB1B7886
:1079F000103001930BAB1B78170002930CAB1B7874
:107A00000D00039300F0A6F92000243000F0A2F945
:107A1000220000234832A363E3632364636413708A
:107A2000537063729D4205D12721084B084A0948CB
:107A300006F0AAFF2000019B25606371029B27715D
:107A4000E371039BA671237205B0F0BD24480100C9
:107A5000354801008948010030B5040085B002AD09
:107A600000680291039201F077FD6B79227AE17947
:107A700020680093002301F079FF2979029A206899
:107A800001F0C4FD206801F05DFD05B030BD10B50A
:107A90000400006801F049FD0023637210BD10B5B9
:107AA0000068002903D1013101F060FD10BD002103
:107AB000FAE7030010B50800032907D804F090FB8B
:107AC000070B02090021186801F064FD10BD0121B7
:107AD000F9E70221F7E70321F5E710B5006801296E
